S00A000042332E73726563A5
S113000045C0000053C0000051C000004FC00000B4
S11300104DC000004BC0000049C0000047C00000B4
S113002045C0000052C0000041C000003FC00000B5
S11300303DC000003BC0000039C0000037C00000D4
S113004035C0000033C0000031C000002FC00000E4
S11300502DC000002BC0000029C0000027C00000F4
S113006025C0000023C0000021C000001FC0000004
S11300701DC000001BC0000019C0000017C0000014
S113008015C0000013C0000011C0000011241FBEE1
S1130090CFEFD0E1DEBFCDBF21E0A0E0B1E001C0F1
S11300A01D92A430B207E1F75ED05FC0A9CF82B33E
S11300B0805882BB08958F9A8AEF83BD87B7806882
S11300C087BF78948DE085BD08951F920F920FB677
S11300D00F9211240BB60F922F933F934F935F937C
S11300E06F937F938F939F93AF93BF93EF93FF93FC
S11300F080910201909103010196909303018093F2
S113010002012091000130910101232B61F00F972E
S1130110B9F410920101109200011092030110929F
S11301200201C5DF0DC0499759F481E090E0909336
S11301300101809300011092030110920201B7DFC4
S1130140FF91EF91BF91AF919F918F917F916F91AB
S11301505F914F913F912F910F900BBE0F900FBE67
S11101600F901F901895A7DFFFCFF894FFCFE4
S9030000FC
