S0090000432E73726563D8
S113000045C000004BC0000049C0000047C00000CC
S113001045C0000043C0000041C000003FC00000D4
S11300203DC000003BC0000039C0000037C00000E4
S113003035C0000033C0000031C000002FC00000F4
S11300402DC000002BC0000029C0000027C0000004
S113005025C0000023C0000021C000001FC0000014
S11300601DC000001BC0000019C0000017C0000024
S113007015C0000013C0000011C000000FC0000034
S11300800DC000000BC0000009C0000011241FBEF9
S1130090CFEFD0E1DEBFCDBFA8D0E4C0B1CF1816FA
S11300A019066CF420E030E0EFECF7E03197F1F75B
S11300B000C000002F5F3F4F82179307A9F70895F0
S11300C08FEF87BBBB98C09A82E58DB908958FB92D
S11300D0779BFECF089598B321E030E002C0220F51
S11300E0331F8A95E2F72095292328BB089598B3F6
S11300F021E030E002C0220F331F8A95E2F7292B5A
S113010028BB0895CF93DF93D82FC62F80E0E3DF79
S11301108D2FDDDF8C2FDBDF80E0E9DFDF91CF91F6
S113012008956FE070E089E090E0ECDF6FE070E04C
S11301308AE090E0E7DF63E070E08BE090E0E2DFEC
S113014061E070E08CE090E0DDCF0895EF92FF92E3
S11301500F931F93CF93DF93803127E29207C0F46C
S1130160181619060CF03AC0C1E00F2EFAE0EF2E73
S1130170F12CF02DB7014FD0162FD72F682F8C2FCD
S1130180C1DF812F9D2FCF5F181619069CF326C05F
S11301909C0129513C4F273E334000F591958195B0
S11301A0910918161906ACF4C1E0D0E00F2EFAE05C
S11301B0EF2EF12CF02DB7012ED0062F172F682F1C
S11301C08C2FA0DF2196802F912F181619069CF3EF
S11301D002C0C1E0D0E06AE08C2F94DFDF91CF91C0
S11301E01F910F91FF90EF900895CF9381E087BB0B
S11301F067DF97DFC1E060E08C2F84DFCF5FC5301D
S1130200D1F788EE93E04BDF85E89FEF9FDF81E035
S113021090E0CF91089597FB072E16F4009406D032
S113022077FD08D00BD007FC05D03EF4909581955E
S11302309F4F0895709561957F4F0895AA1BBB1B2E
S113024051E107C0AA1FBB1FA617B70710F0A61BD2
S1130250B70B881F991F5A95A9F780959095BC01F3
S10B0260CD010895F894FFCFCD
S9030000FC
