S00B00004C43442E7372656346
S113000045C0000058C0000056C0000054C00000A5
S113001052C0000050C000004EC000004CC00000A0
S11300204AC0000048C0000046C0000044C00000B0
S113003042C0000040C000003EC000003CC00000C0
S11300403AC0000038C0000036C0000034C00000D0
S113005032C0000030C000002EC000002CC00000E0
S11300602AC0000028C0000026C0000024C00000F0
S113007022C0000020C000001EC000001CC0000000
S11300801AC0000018C0000016C0000011241FBED2
S1130090CFEFD0E1DEBFCDBF11E0A0E0B1E0E2E6FA
S11300A0F1E000E00BBF02C007900D92A031B10750
S11300B0D9F74DD054C0A4CFAB9A8FEC97E00197F9
S11300C0F1F700C00000AB988FEC97E00197F1F7CF
S11300D000C000000895AA9A0895AA980895CF939D
S11300E0C82F85BBF8DFE8DFC295C07FC5BBF3DF4F
S11300F0E3DFCF910895CF93C82F85BBEEDFDCDF1C
S1130100C295C07FC5BBE9DFD7DFCF910895CF93F8
S1130110DF93EC018881882329F02196E0DF89911F
S11301208111FCCFDF91CF91089581E0E4CF089550
S11301308FEF84BB15BA80E285BBBEDF8CE0DBDFCA
S113014086E0D9DFF2CF08958058D5CF0895F0DF47
S113015080E091E0DCDF8FE090E0F6DFFFCFF89401
S1050160FFCFCB
S113016241726520796F75206120796564693F0069
S9030000FC
