S00B0000422E322E7372656377
S113000045C0000053C0000063C00000A5C000004C
S11300104DC000004BC0000049C0000047C00000B4
S113002045C0000043C0000041C000003FC00000C4
S11300303DC000003BC0000039C0000037C00000D4
S113004035C0000033C0000031C000002FC00000E4
S11300502DC000002BC0000029C0000027C00000F4
S113006025C0000023C0000021C000001FC0000004
S11300701DC000001BC0000019C0000017C0000014
S113008015C0000013C0000011C0000011241FBEE1
S1130090CFEFD0E1DEBFCDBF21E0A0E0B1E001C0F1
S11300A01D92A230B207E1F79BD0AEC0A9CF1816BB
S11300B019066CF420E030E0EFECF7E03197F1F74B
S11300C000C000002F5F3F4F82179307A9F70895E0
S11300D01F920F920FB60F9211240BB60F922F930B
S11300E03F934F935F936F937F938F939F93AF93BC
S11300F0BF93EF93FF9381E090E00090000102C072
S1130100880F991F0A94E2F785BB809100019091B2
S113011001010196883091052CF49093010180939C
S1130120000104C010920101109200018AEF90E0D6
S1130130BEDFFF91EF91BF91AF919F918F917F911E
S11301406F915F914F913F912F910F900BBE0F9044
S11301500FBE0F901F9018951F920F920FB60F921B
S113016011240BB60F922F933F934F935F936F938A
S11301707F938F939F93AF93BF93EF93FF9381E00C
S113018090E00090000102C0880F991F0A94E2F7E2
S113019085BB809100019091010101968830910501
S11301A02CF4909301018093000104C0109201018A
S11301B0109200018AEF90E07ADFFF91EF91BF91F6
S11301C0AF919F918F917F916F915F914F913F91EB
S11301D02F910F900BBE0F900FBE0F901F9018958C
S11301E080EF81BB8FEF84BBEAE6F0E080818C6214
S11301F0808389B7866089BF109201011092000143
S10F020081E085BB7894FFCFF894FFCF19
S9030000FC
