S0130000446973706C6179546578742E7372656396
S11300005FC000007AC0000078C0000076C0000025
S113001074C0000072C0000070C000006EC0000018
S11300206CC000006AC0000068C0000066C0000028
S113003064C0000062C0000060C000005EC0000038
S11300405CC000005AC0000058C0000056C0000048
S113005054C0000052C0000050C000004EC0000058
S11300604CC000004AC0000048C0000046C0000068
S113007044C0000042C0000040C000003EC0000078
S11300803CC000003AC0000038C0000023022C022B
S113009035023E02470251025B0265026F02790299
S11300A083028D029702A102AB02B502BF02C9020C
S11300B0D302DD02E702F102FB0205030F03190379
S11300C011241FBECFEFD0E1DEBFCDBF12E0A0E010
S11300D0B1E0E8EBF9E000E00BBF02C007900D923D
S11300E0A43CB107D9F722E0A4ECB2E001C01D9210
S11300F0AA3DB207E1F72AD35DC482CF8091C4023E
S11301009091C5020196883891052CF49093C5020C
S11301108093C40208951092C5021092C4020895F7
S1130120DF92EF92FF920F931F93CF93DF938C0193
S1130130C8E0D0E06894EE24E3F8F12CE091C40226
S1130140F091C502EC0FFD1FEE0FFF1FE00FF11F32
S1130150D080C7018C1B9D0B8BD26D2DC9D22197EA
S113016069F7DF91CF911F910F91FF90EF90DF908E
S11301700895FF920F931F93CF93DF93C8E0D0E0CD
S113018008E010E0E091C402F091C502EC0FFD1FFD
S1130190EE0FFF1FEA53FD4FF080C8018C1B9D0B2F
S11301A067D26F2DA5D2219769F7DF91CF911F9167
S11301B00F91FF900895E6ECF2E086ED92E0119243
S11301C011928E179F07D9F7D4CF0895F4CF0895CD
S11301D00F931F93CF93DF93CDB7DEB7C65BD140A8
S11301E00FB6F894DEBF0FBECDBF80E290E0C1D25F
S11301F08C0180E1EEE0F1E0DE01119601900D92B8
S11302008A95E1F780E1EEE1F1E0DE01519601909B
S11302100D928A95E1F780E1EEE2F1E0DE0191963C
S113022001900D928A95E1F780E1EEE3F1E0DE01C1
S1130230D19601900D928A95E1F780E1EEE4F1E028
S1130240DE01AF5BBF4F01900D928A95E1F780E12B
S1130250EEE5F1E0DE01AF5ABF4F01900D928A95B1
S1130260E1F780E1EEE6F1E0DE01AF59BF4F019026
S11302700D928A95E1F780E1EEE7F1E0DE01AF58F7
S1130280BF4F01900D928A95E1F780E1EEE8F1E02D
S1130290DE01AF57BF4F01900D928A95E1F780E1DF
S11302A0EEE9F1E0DE01AF56BF4F01900D928A9561
S11302B0E1F780E1EEEAF1E0DE01AF55BF4F0190D6
S11302C00D928A95E1F780E1EEEBF1E0DE01AF54A7
S11302D0BF4F01900D928A95E1F780E1EEECF1E0D9
S11302E0DE01AF53BF4F01900D928A95E1F780E193
S11302F0EEEDF1E0DE01AF52BF4F01900D928A9511
S1130300E1F780E1EEEEF1E0DE01AF51BF4F019085
S11303100D928A95E1F780E1EEEFF1E0DE01AF5056
S1130320BF4F01900D928A95E1F780E1EEE0F2E093
S1130330DE01AF5FBE4F01900D928A95E1F780E137
S1130340EEE1F2E0DE01AF5EBE4F01900D928A95C0
S1130350E1F780E1EEE2F2E0DE01AF5DBE4F019035
S11303600D928A95E1F780E1EEE3F2E0DE01AF5C05
S1130370BE4F01900D928A95E1F780E1EEE4F2E040
S1130380DE01AF5BBE4F01900D928A95E1F780E1EB
S1130390EEE5F2E0DE01AF5ABE4F01900D928A9570
S11303A0E1F780E1EEE6F2E0DE01AF59BE4F0190E5
S11303B00D928A95E1F780E1EEE7F2E0DE01AF58B5
S11303C0BE4F01900D928A95E1F780E1EEE8F2E0EC
S11303D0DE01AF57BE4F01900D928A95E1F780E19F
S11303E0EEE9F2E0DE01AF56BE4F01900D928A9520
S11303F0E1F783E1EEEAF2E0DE01AF55BE4F019092
S11304000D928A95E1F7E1EAF1E0EC0FFD1F739696
S113041083E0DF011D928A95E9F7AE014F555E4FE7
S11304209801B801605A7E4FDA01ED91AD018E2F2B
S113043090E0FC01E156F109EA31F10508F002C14E
S1130440EA5BFF4F8DC180E1FE013196D901019035
S11304500D928A95E1F7F6C080E1FE017196D9010B
S113046001900D928A95E1F7EDC080E1FE01B1960D
S1130470D90101900D928A95E1F7E4C080E1FE0173
S1130480F196D90101900D928A95E1F7DBC080E1E4
S1130490FE01EF5BFF4FD90101900D928A95E1F7C0
S11304A0D1C080E1FE01EF5AFF4FD90101900D92B6
S11304B08A95E1F7C7C080E1FE01EF59FF4FD901EA
S11304C001900D928A95E1F7BDC080E1FE01EF58DD
S11304D0FF4FD90101900D928A95E1F7B3C080E1F5
S11304E0FE01EF57FF4FD90101900D928A95E1F774
S11304F0A9C080E1FE01EF56FF4FD90101900D9292
S11305008A95E1F79FC080E1FE01EF55FF4FD901C5
S113051001900D928A95E1F795C080E1FE01EF54B8
S1130520FF4FD90101900D928A95E1F78BC080E1CC
S1130530FE01EF53FF4FD90101900D928A95E1F727
S113054081C080E1FE01EF52FF4FD90101900D926D
S11305508A95E1F777C080E1FE01EF51FF4FD901A1
S113056001900D928A95E1F76DC080E1FE01EF5094
S1130570FF4FD90101900D928A95E1F763C080E1A4
S1130580FE01EF5FFE4FD90101900D928A95E1F7CC
S113059059C080E1FE01EF5EFE4FD90101900D923A
S11305A08A95E1F74FC080E1FE01EF5DFE4FD9016E
S11305B001900D928A95E1F745C080E1FE01EF5C60
S11305C0FE4FD90101900D928A95E1F73BC080E17D
S11305D0FE01EF5BFE4FD90101900D928A95E1F780
S11305E031C080E1FE01EF5AFE4FD90101900D9216
S11305F08A95E1F727C080E1FE01EF59FE4FD9014A
S113060001900D928A95E1F71DC080E1FE01EF583B
S1130610FE4FD90101900D928A95E1F713C080E154
S1130620FE01EF57FE4FD90101900D928A95E1F733
S113063009C080E1FE01EF56FE4FD90101900D92F1
S11306408A95E1F7205F3F4F2617370709F0ECCE74
S1130650C80166DDC80125D1CA54DE4F0FB6F8942F
S1130660DEBF0FBECDBFDF91CF911F910F910895D3
S11306708A5F9E4FFC018081089584EA8093740010
S1130680E4E7F0E080818823ECF708958093730019
S113069084E880937400E4E7F0E080818823ECF739
S11306A008951F93CF93DF931092710080E280939B
S11306B07000E3DF80EEEADF81E2E8DFC4E7D0E048
S11306C014E91883DADF80EEE1DF80EADFDF1883E4
S11306D0D4DF80EEDBDF83EED9DF1883CEDF80EE5C
S11306E0D5DF81E8D3DF1883DF91CF911F9108957F
S11306F0CF93DF93D82FC62FC0DF80EEC7DF8D2FB7
S1130700C5DF8C2FC3DF84E980937400DF91CF9120
S11307100895181619066CF420E030E0EFECF7E0C9
S11307203197F1F700C000002F5F3F4F8217930706
S1130730A9F70895B6DF4ADD8FEF8ABB8AB7806CCC
S11307408ABF89B7806889BF78940895F3DF84EFFE
S113075091E0DFDF3DDDD2DC84E690E0DADFFACF42
S1130760EE0FFF1F0024001C0BBE0790F691E02D36
S113077009940F931F93CF93DF938230910510F464
S113078082E090E0E091D802F091D90220E030E0DC
S1130790A0E0B0E0309719F14081518102811381CA
S11307A048175907C8F08417950769F4109731F072
S11307B012960C93129713961C9327C00093D80299
S11307C01093D90222C02115310519F0421753079D
S11307D018F49A01BD01EF01DF01F801DBCF211507
S11307E03105F9F0281B390B2430310580F48A8156
S11307F09B816115710521F0FB019383828304C001
S11308009093D9028093D802FE01329644C0FE012F
S1130810E20FF31F81939193225031093983288386
S11308203AC02091D6023091D702232B41F4209173
S11308300201309103013093D7022093D602209114
S11308400001309101012115310541F42DB73EB766
S11308504091040150910501241B350BE091D6020F
S1130860F091D702E217F307A0F42E1B3F0B2817D1
S1130870390778F0AC014E5F5F4F2417350748F015
S11308804E0F5F1F5093D7024093D60281939193EA
S113089002C0E0E0F0E0CF01DF91CF911F910F9112
S11308A00895CF93DF93009709F481C0FC01329738
S11308B013821282A091D802B091D902109781F4C8
S11308C020813181820F931F2091D6023091D7026B
S11308D02817390751F5F093D702E093D60267C081
S11308E0ED0120E030E0CE17DF0740F44A815B8160
S11308F09E0141155105F1F0EA01F5CFD383C2837E
S113090040815181840F951FC817D90759F48881F4
S11309109981840F951F0296918380838A819B819C
S1130920938382832115310529F4F093D902E0934E
S1130930D8023DC0E901FB83EA8349915991C40F70
S1130940D51FEC17FD0761F480819181840F951FF9
S11309500296E90199838883828193819B838A83A8
S1130960E0E0F0E012968D919C911397009719F0B6
S1130970FD01DC01F7CF8D919C9111979D012E5FB4
S11309803F4F820F931F2091D6023091D702281730
S1130990390769F4309729F41092D9021092D802D9
S11309A002C013821282B093D702A093D602DF91C1
S10B09B0CF910895F894FFCFE4
S11309B80000DA02200000020406080A0C0E0000F7
S11309C800003F008400840084003F000000000011
S11309D80000BF00A400A400A4001B000000000045
S11309E81E00210021002100210000000000000059
S11309F83F002100210021001E000000000000002B
S1130A083F0025002500210021000000000000000F
S1130A183F0005000500050001000000000000007B
S1130A283F002100250025003D00000000000000D3
S1130A383F000400040004003F0000000000000020
S1130A48210021003F0021002100000000000000D7
S1130A5800003100210021003F00000000000000D8
S1130A683F0004000A0031000000000000000000FC
S1130A783F002000200020000000000000000000CB
S1130A883F000100070001003F00000000000000D3
S1130A983F000200040008003F00000000000000BE
S1130AA83F002100210021003F0000000000000059
S1130AB83F000900090009000600000000000000CA
S1130AC806000900090009003F00000000000000BA
S1130AD83F0009001900290006000000000000007A
S1130AE816002500250029001A0000000000000057
S1130AF80000010001001F000100010000000000C7
S1130B0800000F001000100008001F000000000083
S1130B18000007000800100008000700000000009B
S1130B2800000F0010000C0010000F00000000006F
S1130B38000011000A0004000A001100000000006F
S1130B480000220014000800040002000000000055
S1130B5841006100510049004500430000006E65F2
S1130B687264736172657468656E6577636F6F6CC0
S1070B780000000075
S9030000FC
