S0130000446973706C6179546578742E7372656396
S113000045C0000060C000005EC000005CC000008D
S11300105AC0000058C0000056C0000054C0000080
S113002052C0000050C000004EC000004CC0000090
S11300304AC0000048C0000046C0000044C00000A0
S113004042C0000040C000003EC000003CC00000B0
S11300503AC0000038C0000036C0000034C00000C0
S113006032C0000030C000002EC000002CC00000D0
S11300702AC0000028C0000026C0000024C00000E0
S113008022C0000020C000001EC0000011241FBEBA
S1130090CFEFD0E1DEBFCDBF11E0A0E0B1E0E4E2FC
S11300A0F3E000E00BBF02C007900D92A839B1073E
S11300B0D9F721E0A8E9B1E001C01D92AC3BB20739
S11300C0E1F722D12DC19CCF8091980190919901A3
S11300D00196823191052CF49093990180939801B3
S11300E0089510929901109298010895EAE9F1E0B7
S11300F08AEA91E0119211928E179F07D9F7089519
S1130100F5CF08950F931F93CF93DF93C0E0D0E012
S1130110E0919801F0919901EC0FFD1FEE0FFF1F84
S1130120E656FE4F0081118115950795CE017DD0CD
S1130130602FBBD02196C830D10551F7DF91CF9104
S11301401F910F910895CF93DF93CDB7DEB7A0979A
S11301500FB6F894DEBF0FBECDBF80E1E8E0F1E05A
S1130160DE01119601900D928A95E1F780E1E8E0B5
S1130170F1E0DE01519601900D928A95E1F7FE01BE
S11301803196AAE9B1E09E012F5E3F4F8191919192
S11301908D939D93E217F307C9F71092AB01109268
S11301A0AA01FE01B396ACEAB1E09E012D5C3F4F7B
S11301B0819191918D939D93E217F307C9F7A2DF83
S11301C0A0960FB6F894DEBF0FBECDBFDF91CF91DE
S11301D00895AB9A8FEC97E00197F1F700C0000007
S11301E0AB988FEC97E00197F1F700C000000895F9
S11301F0AA980895CF93C82F85BBFADFEADFC2958A
S1130200C07FC5BBF5DFE5DFCF91089581E0F2CF74
S113021008958FEF84BB15BA80E285BBDADF8CE0EA
S1130220E9DF86E0E7DFF2CF089580509F4FFC01BD
S11302308081089584EA80937400E4E7F0E080818B
S11302408823ECF708958093730084E88093740006
S1130250E4E7F0E080818823ECF708951F93CF93BF
S1130260DF931092710080E280937000E3DF80EEF0
S1130270EADF81E2E8DFC4E7D0E014E91883DADFDB
S113028080EEE1DF80EADFDF1883D4DF80EEDBDF9E
S113029083EED9DF1883CEDF80EED5DF81E8D3DFAC
S11302A01883DF91CF911F910895CF93DF93D82FB7
S11302B0C62FC0DF80EEC7DF8D2FC5DF8C2FC3DFD5
S11302C084E980937400DF91CF910895181619067C
S11302D06CF420E030E0EFECF7E03197F1F700C088
S11302E000002F5F3F4F82179307A9F70895B6DFE9
S11302F007DF8FDF8FEF8ABB8AB7806C8ABF89B72D
S1130300806889BF78940895F2DF84EF91E0DEDF9E
S1130310EDDE19DFF7DED8DE88EE93E0D7DFF8CF25
S1070320F894FFCF7B
S113032400020406080A0C0E00007F00FF00CC0043
S1130334CC00CC00FF007F0000000000010001009D
S113034401000100000000000000010000000000A2
S11303540000000001000000010000000100000092
S11303640000010000000100010000000000000082
S11303740000000000000100010000000000010072
S11303840100000000000100010000000100000061
S11303940000010000000100000001000000000052
S11303A40000000001000000000000000100010042
S10B03B401000100000000003B
S9030000FC
