S00A000042322E73726563A6
S113000045C0000060C000005EC000005CC000008D
S11300105AC0000058C0000056C0000054C0000080
S113002052C00000C5C000004EC000004CC000001B
S11300304AC0000048C0000046C0000044C00000A0
S113004042C0000040C000003EC000003CC00000B0
S11300503AC0000038C0000036C0000034C00000C0
S113006032C0000030C000002EC000002CC00000D0
S11300702AC0000028C0000026C0000024C00000E0
S113008022C0000020C000001EC0000011241FBEBA
S1130090CFEFD0E1DEBFCDBF11E0A0E0B1E0E2E6FA
S11300A0F2E000E00BBF02C007900D92AC30B10744
S11300B0D9F721E0ACE0B1E001C01D92AE30B20747
S11300C0E1F78DD0CCC09CCFAB9A8FEC97E0019731
S11300D0F1F700C00000AB988FEC97E00197F1F7BF
S11300E000C000000895AA9A0895AA980895CF938D
S11300F0C82F85BBF8DFE8DFC295C07FC5BBF3DF3F
S1130100E3DFCF910895CF93C82F85BBEEDFDCDF0B
S1130110C295C07FC5BBE9DFD7DFCF910895CF93E8
S1130120DF93EC018881882329F02196E0DF89910F
S11301308111FCCFDF91CF910895CF93DF93CDB799
S1130140DEB7C75ED3400FB6F894DEBF0FBECDBF97
S11301504AE0BE016F5F7F4F4FD0CE010196DFDFD3
S1130160C951DC4F0FB6F894DEBF0FBECDBFDF918F
S1130170CF91089581E0C7CF08958FEF84BB15BA5E
S113018088E285BBA1DFF6DF8CE0BDDF86E0BBDF64
S1130190F1CF08958058B7CF0895EFDF8F9883E0AB
S11301A083BD87B7806887BF78948FE185BD089544
S11301B01F920F920FB60F9211248F939F938091E9
S11301C00C0190910D01019690930D0180930C0107
S11301D09F918F910F900FBE0F901F901895DDDFA8
S11301E080E091E09CDF8AE090E0D4DF80910C0114
S11301F090910D01A2DFF7CFBB274A3031F4992348
S113020022F4BDE2909581959F4F01C0BB27FB016D
S11302105527AA27880F991FAA1FA41710F0A41BFB
S113022083955051B9F7A05DAA3308F0A95DA19355
S1130230009779F7B111B1931192CB0100C0DC01A1
S1130240FC01672F71917723E1F7329704C07C9109
S11302506D9370836291AE17BF07C8F30895F89445
S1050260FFCFCA
S10F0262436F756E74696E673A200000EB
S9030000FC
