S00B0000422E332E7372656376
S113000045C0000060C0000070C0000082C0000055
S11300105AC0000058C0000056C0000054C0000080
S113002052C0000050C000004EC000004CC0000090
S11300304AC0000048C0000046C0000044C00000A0
S113004042C0000040C000003EC000003CC00000B0
S11300503AC0000038C0000036C0000034C00000C0
S113006032C0000030C000002EC000002CC00000D0
S11300702AC0000028C0000026C0000024C00000E0
S113008022C0000020C000001EC0000011241FBEBA
S1130090CFEFD0E1DEBFCDBF11E0A0E0B1E0E0E200
S11300A0F2E000E00BBF02C007900D92A031B1074F
S11300B0D9F721E0A0E1B1E001C01D92A631B20759
S11300C0E1F73BD0ABC09CCF181619066CF420E0C6
S11300D030E0EFECF7E03197F1F700C000002F5F5C
S11300E03F4F82179307A9F708951F920F920FB6F7
S11300F00F9211248F939F9381E090E090931501C8
S1130100809314019F918F910F900FBE0F901F90B9
S113011018951F920F920FB60F9211248F939F93ED
S113012081E090E090931101809310019F918F9151
S11301300F900FBE0F901F90189580EF81BB8FEF2B
S113014084BB1092130110921201EAE6F0E0808160
S11301508C62808389B7866089BF7894E0911201AC
S1130160F0911301E050FF4F808185BBC0E0D1E0E6
S11301708091140190911501019771F580911001FE
S113018090911101019779F41092130110921201C8
S1130190888185BB109215011092140110921101EF
S11301A01092100137C080911201909113010197B0
S11301B090931301809312018031910518F08E857C
S11301C085BB05C0FC01E050FF4F808185BB1092C8
S11301D01501109214011EC080911001909111011B
S11301E00197C1F4809112019091130101969093AB
S11301F01301809312018031910518F08E8585BB1F
S113020005C0FC01E050FF4F808185BB10921101B5
S11302101092100188EC90E057DFAACFF894FFCF3A
S11302203F065B4F666D7D077F6F777C395E797122
S9030000FC
